{
  "_format": "hh-sol-artifact-1",
  "contractName": "METAAPEGANG",
  "sourceName": "contracts/NFT.sol",
  "abi": [
    {
      "anonymous": false,
      "inputs": [
        {
          "indexed": true,
          "internalType": "address",
          "name": "owner",
          "type": "address"
        },
        {
          "indexed": true,
          "internalType": "address",
          "name": "approved",
          "type": "address"
        },
        {
          "indexed": true,
          "internalType": "uint256",
          "name": "tokenId",
          "type": "uint256"
        }
      ],
      "name": "Approval",
      "type": "event"
    },
    {
      "anonymous": false,
      "inputs": [
        {
          "indexed": true,
          "internalType": "address",
          "name": "owner",
          "type": "address"
        },
        {
          "indexed": true,
          "internalType": "address",
          "name": "operator",
          "type": "address"
        },
        {
          "indexed": false,
          "internalType": "bool",
          "name": "approved",
          "type": "bool"
        }
      ],
      "name": "ApprovalForAll",
      "type": "event"
    },
    {
      "anonymous": false,
      "inputs": [
        {
          "indexed": true,
          "internalType": "address",
          "name": "delegate",
          "type": "address"
        },
        {
          "indexed": true,
          "internalType": "uint256",
          "name": "roles",
          "type": "uint256"
        }
      ],
      "name": "DelegateUpdated",
      "type": "event"
    },
    {
      "anonymous": false,
      "inputs": [
        {
          "indexed": true,
          "internalType": "address",
          "name": "previousOwner",
          "type": "address"
        },
        {
          "indexed": true,
          "internalType": "address",
          "name": "newOwner",
          "type": "address"
        }
      ],
      "name": "OwnershipTransferred",
      "type": "event"
    },
    {
      "anonymous": false,
      "inputs": [
        {
          "indexed": true,
          "internalType": "address",
          "name": "from",
          "type": "address"
        },
        {
          "indexed": true,
          "internalType": "address",
          "name": "to",
          "type": "address"
        },
        {
          "indexed": true,
          "internalType": "uint256",
          "name": "tokenId",
          "type": "uint256"
        }
      ],
      "name": "Transfer",
      "type": "event"
    },
    {
      "inputs": [],
      "name": "_INTERFACE_ID_ERC721_VERIFY_FINGERPRINT",
      "outputs": [
        {
          "internalType": "bytes4",
          "name": "",
          "type": "bytes4"
        }
      ],
      "stateMutability": "view",
      "type": "function"
    },
    {
      "inputs": [
        {
          "internalType": "address",
          "name": "to",
          "type": "address"
        },
        {
          "internalType": "uint256",
          "name": "tokenId",
          "type": "uint256"
        }
      ],
      "name": "approve",
      "outputs": [],
      "stateMutability": "nonpayable",
      "type": "function"
    },
    {
      "inputs": [
        {
          "internalType": "address",
          "name": "owner",
          "type": "address"
        }
      ],
      "name": "balanceOf",
      "outputs": [
        {
          "internalType": "uint256",
          "name": "",
          "type": "uint256"
        }
      ],
      "stateMutability": "view",
      "type": "function"
    },
    {
      "inputs": [
        {
          "internalType": "address",
          "name": "",
          "type": "address"
        }
      ],
      "name": "delegates",
      "outputs": [
        {
          "internalType": "uint256",
          "name": "",
          "type": "uint256"
        }
      ],
      "stateMutability": "view",
      "type": "function"
    },
    {
      "inputs": [
        {
          "internalType": "uint256",
          "name": "",
          "type": "uint256"
        }
      ],
      "name": "extraInfoMap",
      "outputs": [
        {
          "internalType": "string",
          "name": "metaDataURI",
          "type": "string"
        },
        {
          "internalType": "bytes32",
          "name": "metaDataHash",
          "type": "bytes32"
        }
      ],
      "stateMutability": "view",
      "type": "function"
    },
    {
      "inputs": [
        {
          "internalType": "uint256",
          "name": "tokenId",
          "type": "uint256"
        }
      ],
      "name": "getApproved",
      "outputs": [
        {
          "internalType": "address",
          "name": "",
          "type": "address"
        }
      ],
      "stateMutability": "view",
      "type": "function"
    },
    {
      "inputs": [
        {
          "internalType": "string",
          "name": "_metaData",
          "type": "string"
        }
      ],
      "name": "getMetaDataHash",
      "outputs": [
        {
          "internalType": "bytes32",
          "name": "",
          "type": "bytes32"
        }
      ],
      "stateMutability": "pure",
      "type": "function"
    },
    {
      "inputs": [],
      "name": "getMintPrice",
      "outputs": [
        {
          "internalType": "uint256",
          "name": "",
          "type": "uint256"
        }
      ],
      "stateMutability": "view",
      "type": "function"
    },
    {
      "inputs": [],
      "name": "getMintTokenAmount",
      "outputs": [
        {
          "internalType": "uint256",
          "name": "",
          "type": "uint256"
        }
      ],
      "stateMutability": "view",
      "type": "function"
    },
    {
      "inputs": [
        {
          "internalType": "address",
          "name": "_addr",
          "type": "address"
        }
      ],
      "name": "getTokenIdsByAddress",
      "outputs": [
        {
          "internalType": "uint256[]",
          "name": "",
          "type": "uint256[]"
        }
      ],
      "stateMutability": "view",
      "type": "function"
    },
    {
      "inputs": [
        {
          "internalType": "address",
          "name": "delegate",
          "type": "address"
        },
        {
          "internalType": "uint256",
          "name": "roles",
          "type": "uint256"
        }
      ],
      "name": "hasRoles",
      "outputs": [
        {
          "internalType": "bool",
          "name": "",
          "type": "bool"
        }
      ],
      "stateMutability": "view",
      "type": "function"
    },
    {
      "inputs": [],
      "name": "initialize",
      "outputs": [],
      "stateMutability": "nonpayable",
      "type": "function"
    },
    {
      "inputs": [
        {
          "internalType": "address",
          "name": "owner",
          "type": "address"
        },
        {
          "internalType": "address",
          "name": "operator",
          "type": "address"
        }
      ],
      "name": "isApprovedForAll",
      "outputs": [
        {
          "internalType": "bool",
          "name": "",
          "type": "bool"
        }
      ],
      "stateMutability": "view",
      "type": "function"
    },
    {
      "inputs": [
        {
          "internalType": "uint256",
          "name": "_count",
          "type": "uint256"
        }
      ],
      "name": "mint",
      "outputs": [],
      "stateMutability": "payable",
      "type": "function"
    },
    {
      "inputs": [],
      "name": "mintPrice",
      "outputs": [
        {
          "internalType": "uint256",
          "name": "",
          "type": "uint256"
        }
      ],
      "stateMutability": "view",
      "type": "function"
    },
    {
      "inputs": [],
      "name": "mintPriceByToken",
      "outputs": [
        {
          "internalType": "uint256",
          "name": "",
          "type": "uint256"
        }
      ],
      "stateMutability": "view",
      "type": "function"
    },
    {
      "inputs": [],
      "name": "name",
      "outputs": [
        {
          "internalType": "string",
          "name": "",
          "type": "string"
        }
      ],
      "stateMutability": "view",
      "type": "function"
    },
    {
      "inputs": [],
      "name": "owner",
      "outputs": [
        {
          "internalType": "address",
          "name": "",
          "type": "address"
        }
      ],
      "stateMutability": "view",
      "type": "function"
    },
    {
      "inputs": [
        {
          "internalType": "uint256",
          "name": "tokenId",
          "type": "uint256"
        }
      ],
      "name": "ownerOf",
      "outputs": [
        {
          "internalType": "address",
          "name": "",
          "type": "address"
        }
      ],
      "stateMutability": "view",
      "type": "function"
    },
    {
      "inputs": [],
      "name": "renounceOwnership",
      "outputs": [],
      "stateMutability": "nonpayable",
      "type": "function"
    },
    {
      "inputs": [
        {
          "internalType": "address",
          "name": "oldDelegate",
          "type": "address"
        },
        {
          "internalType": "address",
          "name": "newDelegate",
          "type": "address"
        }
      ],
      "name": "replaceDelegate",
      "outputs": [],
      "stateMutability": "nonpayable",
      "type": "function"
    },
    {
      "inputs": [
        {
          "internalType": "address",
          "name": "from",
          "type": "address"
        },
        {
          "internalType": "address",
          "name": "to",
          "type": "address"
        },
        {
          "internalType": "uint256",
          "name": "tokenId",
          "type": "uint256"
        }
      ],
      "name": "safeTransferFrom",
      "outputs": [],
      "stateMutability": "nonpayable",
      "type": "function"
    },
    {
      "inputs": [
        {
          "internalType": "address",
          "name": "from",
          "type": "address"
        },
        {
          "internalType": "address",
          "name": "to",
          "type": "address"
        },
        {
          "internalType": "uint256",
          "name": "tokenId",
          "type": "uint256"
        },
        {
          "internalType": "bytes",
          "name": "_data",
          "type": "bytes"
        }
      ],
      "name": "safeTransferFrom",
      "outputs": [],
      "stateMutability": "nonpayable",
      "type": "function"
    },
    {
      "inputs": [
        {
          "internalType": "address",
          "name": "operator",
          "type": "address"
        },
        {
          "internalType": "bool",
          "name": "approved",
          "type": "bool"
        }
      ],
      "name": "setApprovalForAll",
      "outputs": [],
      "stateMutability": "nonpayable",
      "type": "function"
    },
    {
      "inputs": [
        {
          "internalType": "string",
          "name": "_newbaseTokenURI",
          "type": "string"
        }
      ],
      "name": "setBaseURI",
      "outputs": [],
      "stateMutability": "nonpayable",
      "type": "function"
    },
    {
      "inputs": [
        {
          "internalType": "uint256",
          "name": "_maxCount",
          "type": "uint256"
        }
      ],
      "name": "setMaxMintCount",
      "outputs": [],
      "stateMutability": "nonpayable",
      "type": "function"
    },
    {
      "inputs": [
        {
          "internalType": "uint256",
          "name": "_price",
          "type": "uint256"
        }
      ],
      "name": "setMintPrice",
      "outputs": [],
      "stateMutability": "nonpayable",
      "type": "function"
    },
    {
      "inputs": [
        {
          "internalType": "address",
          "name": "_newNMetaAddress",
          "type": "address"
        }
      ],
      "name": "setToken",
      "outputs": [],
      "stateMutability": "nonpayable",
      "type": "function"
    },
    {
      "inputs": [
        {
          "internalType": "address",
          "name": "_newWithdrawable",
          "type": "address"
        }
      ],
      "name": "setWithdrawableAddress",
      "outputs": [],
      "stateMutability": "nonpayable",
      "type": "function"
    },
    {
      "inputs": [
        {
          "internalType": "bytes4",
          "name": "interfaceId",
          "type": "bytes4"
        }
      ],
      "name": "supportsInterface",
      "outputs": [
        {
          "internalType": "bool",
          "name": "",
          "type": "bool"
        }
      ],
      "stateMutability": "view",
      "type": "function"
    },
    {
      "inputs": [],
      "name": "symbol",
      "outputs": [
        {
          "internalType": "string",
          "name": "",
          "type": "string"
        }
      ],
      "stateMutability": "view",
      "type": "function"
    },
    {
      "inputs": [
        {
          "internalType": "uint256",
          "name": "index",
          "type": "uint256"
        }
      ],
      "name": "tokenByIndex",
      "outputs": [
        {
          "internalType": "uint256",
          "name": "",
          "type": "uint256"
        }
      ],
      "stateMutability": "view",
      "type": "function"
    },
    {
      "inputs": [
        {
          "internalType": "uint256",
          "name": "tokenId",
          "type": "uint256"
        }
      ],
      "name": "tokenMetaData",
      "outputs": [
        {
          "internalType": "uint256",
          "name": "",
          "type": "uint256"
        }
      ],
      "stateMutability": "view",
      "type": "function"
    },
    {
      "inputs": [
        {
          "internalType": "uint256",
          "name": "_count",
          "type": "uint256"
        }
      ],
      "name": "tokenMint",
      "outputs": [],
      "stateMutability": "nonpayable",
      "type": "function"
    },
    {
      "inputs": [
        {
          "internalType": "address",
          "name": "owner",
          "type": "address"
        },
        {
          "internalType": "uint256",
          "name": "index",
          "type": "uint256"
        }
      ],
      "name": "tokenOfOwnerByIndex",
      "outputs": [
        {
          "internalType": "uint256",
          "name": "",
          "type": "uint256"
        }
      ],
      "stateMutability": "view",
      "type": "function"
    },
    {
      "inputs": [
        {
          "internalType": "uint256",
          "name": "tokenId",
          "type": "uint256"
        }
      ],
      "name": "tokenURI",
      "outputs": [
        {
          "internalType": "string",
          "name": "",
          "type": "string"
        }
      ],
      "stateMutability": "view",
      "type": "function"
    },
    {
      "inputs": [],
      "name": "totalSupply",
      "outputs": [
        {
          "internalType": "uint256",
          "name": "",
          "type": "uint256"
        }
      ],
      "stateMutability": "view",
      "type": "function"
    },
    {
      "inputs": [
        {
          "internalType": "address",
          "name": "from",
          "type": "address"
        },
        {
          "internalType": "address",
          "name": "to",
          "type": "address"
        },
        {
          "internalType": "uint256",
          "name": "tokenId",
          "type": "uint256"
        }
      ],
      "name": "transferFrom",
      "outputs": [],
      "stateMutability": "nonpayable",
      "type": "function"
    },
    {
      "inputs": [
        {
          "internalType": "address",
          "name": "newOwner",
          "type": "address"
        }
      ],
      "name": "transferOwnership",
      "outputs": [],
      "stateMutability": "nonpayable",
      "type": "function"
    },
    {
      "inputs": [
        {
          "internalType": "address",
          "name": "delegate",
          "type": "address"
        },
        {
          "internalType": "uint256",
          "name": "roles",
          "type": "uint256"
        }
      ],
      "name": "updateDelegate",
      "outputs": [],
      "stateMutability": "nonpayable",
      "type": "function"
    },
    {
      "inputs": [
        {
          "internalType": "uint256",
          "name": "_tokenId",
          "type": "uint256"
        },
        {
          "internalType": "bytes32",
          "name": "_fingerprint",
          "type": "bytes32"
        }
      ],
      "name": "verifyFingerprint",
      "outputs": [
        {
          "internalType": "bool",
          "name": "",
          "type": "bool"
        }
      ],
      "stateMutability": "view",
      "type": "function"
    },
    {
      "inputs": [],
      "name": "withdrawStuckBNB",
      "outputs": [
        {
          "internalType": "bool",
          "name": "",
          "type": "bool"
        }
      ],
      "stateMutability": "nonpayable",
      "type": "function"
    },
    {
      "inputs": [],
      "name": "withdrawStuckToken",
      "outputs": [],
      "stateMutability": "nonpayable",
      "type": "function"
    },
    {
      "inputs": [
        {
          "internalType": "address",
          "name": "_token",
          "type": "address"
        }
      ],
      "name": "withdrawStuckTokens",
      "outputs": [],
      "stateMutability": "nonpayable",
      "type": "function"
    }
  ],
  "bytecode": "0x608060405234801561001057600080fd5b50613b47806100206000396000f3fe6080604052600436106102e75760003560e01c806370a0823111610184578063a7f93ebd116100d6578063cb9637281161008a578063f17f54a511610064578063f17f54a51461087f578063f2fde38b1461089f578063f4a0a528146108bf57600080fd5b8063cb963728146107f6578063d25117d814610816578063e985e9c51461083657600080fd5b8063b6adefb9116100bb578063b6adefb9146107a0578063b88d4fde146107b6578063c87b56dd146107d657600080fd5b8063a7f93ebd1461076a578063af6a34761461078057600080fd5b806389d5feee1161013857806395d89b411161011257806395d89b4114610722578063a0712d6814610737578063a22cb4651461074a57600080fd5b806389d5feee146106a45780638cb5b56b146106d15780638da5cb5b1461070457600080fd5b806372b66a591161016957806372b66a59146106635780638129fc1c1461067a57806384dd44521461068f57600080fd5b806370a082311461062e578063715018a61461064e57600080fd5b806336c2f4251161023d57806353ed8765116101f157806358d4374e116101cb57806358d4374e146105d75780636352211e146105f75780636817c76c1461061757600080fd5b806353ed87651461055b57806355f804b314610589578063587cde1e146105a957600080fd5b8063484ed33411610222578063484ed334146105065780634f64f0491461051b5780634f6ccce71461053b57600080fd5b806336c2f425146104c657806342842e0e146104e657600080fd5b8063144fa6d71161029f57806323b872dd1161027957806323b872dd146104665780632f745c5914610486578063306c9697146104a657600080fd5b8063144fa6d7146103da57806316606e4b146103fa57806318160ddd1461044757600080fd5b8063081812fc116102d0578063081812fc14610343578063095ea7b31461037b578063112ff4891461039d57600080fd5b806301ffc9a7146102ec57806306fdde0314610321575b600080fd5b3480156102f857600080fd5b5061030c61030736600461350c565b6108df565b60405190151581526020015b60405180910390f35b34801561032d57600080fd5b506103366108f0565b6040516103189190613581565b34801561034f57600080fd5b5061036361035e366004613594565b610982565b6040516001600160a01b039091168152602001610318565b34801561038757600080fd5b5061039b6103963660046135c9565b610a1c565b005b3480156103a957600080fd5b5061030c6103b83660046135c9565b6001600160a01b0391909116600090815261012d602052604090205481161490565b3480156103e657600080fd5b5061039b6103f53660046135f3565b610b4e565b34801561040657600080fd5b5061042e7f8cb5b56b0b357b005adf5059f554ed4289f3f4f430f156b4eee18609bb91c36881565b6040516001600160e01b03199091168152602001610318565b34801561045357600080fd5b506099545b604051908152602001610318565b34801561047257600080fd5b5061039b61048136600461360e565b610bb9565b34801561049257600080fd5b506104586104a13660046135c9565b610bfc565b3480156104b257600080fd5b5061039b6104c1366004613594565b610ca4565b3480156104d257600080fd5b5061039b6104e136600461364a565b610f8f565b3480156104f257600080fd5b5061039b61050136600461360e565b611007565b34801561051257600080fd5b5061030c611022565b34801561052757600080fd5b50610458610536366004613709565b6110c9565b34801561054757600080fd5b50610458610556366004613594565b611141565b34801561056757600080fd5b5061057b610576366004613594565b6111e5565b604051610318929190613752565b34801561059557600080fd5b5061039b6105a4366004613709565b61128a565b3480156105b557600080fd5b506104586105c43660046135f3565b61012d6020526000908152604090205481565b3480156105e357600080fd5b5061039b6105f23660046135f3565b6112ea565b34801561060357600080fd5b50610363610612366004613594565b611355565b34801561062357600080fd5b506104586101335481565b34801561063a57600080fd5b506104586106493660046135f3565b6113e0565b34801561065a57600080fd5b5061039b61147a565b34801561066f57600080fd5b506104586101345481565b34801561068657600080fd5b5061039b6114ce565b34801561069b57600080fd5b5061039b611640565b3480156106b057600080fd5b506106c46106bf3660046135f3565b611790565b6040516103189190613774565b3480156106dd57600080fd5b5061030c6106ec3660046137b8565b60009182526101386020526040909120600101541490565b34801561071057600080fd5b5060fb546001600160a01b0316610363565b34801561072e57600080fd5b506103366117fd565b61039b610745366004613594565b61180c565b34801561075657600080fd5b5061039b6107653660046137e8565b6119b3565b34801561077657600080fd5b5061013354610458565b34801561078c57600080fd5b5061045861079b366004613594565b6119be565b3480156107ac57600080fd5b5061013454610458565b3480156107c257600080fd5b5061039b6107d136600461381f565b6119f3565b3480156107e257600080fd5b506103366107f1366004613594565b611a81565b34801561080257600080fd5b5061039b6108113660046135f3565b611a8c565b34801561082257600080fd5b5061039b6108313660046135c9565b611bd9565b34801561084257600080fd5b5061030c61085136600461364a565b6001600160a01b039182166000908152606a6020908152604080832093909416825291909152205460ff1690565b34801561088b57600080fd5b5061039b61089a366004613594565b611ca7565b3480156108ab57600080fd5b5061039b6108ba3660046135f3565b611cf5565b3480156108cb57600080fd5b5061039b6108da366004613594565b611dc2565b60006108ea82611e10565b92915050565b6060606580546108ff9061389b565b80601f016020809104026020016040519081016040528092919081815260200182805461092b9061389b565b80156109785780601f1061094d57610100808354040283529160200191610978565b820191906000526020600020905b81548152906001019060200180831161095b57829003601f168201915b5050505050905090565b6000818152606760205260408120546001600160a01b0316610a005760405162461bcd60e51b815260206004820152602c60248201527f4552433732313a20617070726f76656420717565727920666f72206e6f6e657860448201526b34b9ba32b73a103a37b5b2b760a11b60648201526084015b60405180910390fd5b506000908152606960205260409020546001600160a01b031690565b6000610a2782611355565b9050806001600160a01b0316836001600160a01b03161415610ab15760405162461bcd60e51b815260206004820152602160248201527f4552433732313a20617070726f76616c20746f2063757272656e74206f776e6560448201527f720000000000000000000000000000000000000000000000000000000000000060648201526084016109f7565b336001600160a01b0382161480610acd5750610acd8133610851565b610b3f5760405162461bcd60e51b815260206004820152603860248201527f4552433732313a20617070726f76652063616c6c6572206973206e6f74206f7760448201527f6e6572206e6f7220617070726f76656420666f7220616c6c000000000000000060648201526084016109f7565b610b498383611e4e565b505050565b60fb546001600160a01b03163314610b965760405162461bcd60e51b81526020600482018190526024820152600080516020613af283398151915260448201526064016109f7565b61013680546001600160a01b0319166001600160a01b0392909216919091179055565b610bc4838383611ebc565b610bce8382611f43565b6001600160a01b03909116600090815261013060209081526040822080546001810182559083529120015550565b6000610c07836113e0565b8210610c7b5760405162461bcd60e51b815260206004820152602b60248201527f455243373231456e756d657261626c653a206f776e657220696e646578206f7560448201527f74206f6620626f756e647300000000000000000000000000000000000000000060648201526084016109f7565b506001600160a01b03919091166000908152609760209081526040808320938352929052205490565b610134548190610cb490826120c9565b610136546040517fdd62ed3e0000000000000000000000000000000000000000000000000000000081523360048201523060248201526001600160a01b039091169063dd62ed3e9060440160206040518083038186803b158015610d1757600080fd5b505afa158015610d2b573d6000803e3d6000fd5b505050506040513d601f19601f82011682018060405250810190610d4f91906138d6565b1015610d9d5760405162461bcd60e51b815260206004820152601860248201527f4e6f7420656e6f75676820746f6b656e20616d6f756e742e000000000000000060448201526064016109f7565b3360009081526101326020526040812054839190610dbb908361216b565b905061013554811115610e105760405162461bcd60e51b815260206004820152601860248201527f4f76657220746865206d6178206d696e7420636f756e742e000000000000000060448201526064016109f7565b61013654610134546001600160a01b03909116906323b872dd9033903090610e3890896120c9565b6040516001600160e01b031960e086901b1681526001600160a01b0393841660048201529290911660248301526044820152606401602060405180830381600087803b158015610e8757600080fd5b505af1158015610e9b573d6000803e3d6000fd5b505050506040513d601f19601f82011682018060405250810190610ebf91906138ef565b5060005b84811015610f5c576000610ed761012e5490565b90506000610ee4826121ca565b604051602001610ef4919061390c565b6040516020818303038152906040529050610f0f3383612250565b610f19828261239e565b3360009081526101306020908152604082208054600181018255908352912001829055610f4761012e612447565b50508080610f5490613963565b915050610ec3565b503360009081526101326020526040902054610f78908561216b565b336000908152610132602052604090205550505050565b60fb546001600160a01b03163314610fd75760405162461bcd60e51b81526020600482018190526024820152600080516020613af283398151915260448201526064016109f7565b6001600160a01b038216600090815261012d602052604081205490610ffd908490611bd9565b610b498282611bd9565b610b49838383604051806020016040528060008152506119f3565b60fb546000906001600160a01b0316331461106d5760405162461bcd60e51b81526020600482018190526024820152600080516020613af283398151915260448201526064016109f7565b610137546040516000916001600160a01b03169047908381818185875af1925050503d80600081146110bb576040519150601f19603f3d011682016040523d82523d6000602084013e6110c0565b606091505b50909250505090565b600080826040516020016110dd919061397e565b60408051808303601f1901815282825280516020918201207f19457468657265756d205369676e6564204d6573736167653a0a33320000000082850152603c8085019190915282518085039091018152605c90930190915281519101209392505050565b600061114c60995490565b82106111c05760405162461bcd60e51b815260206004820152602c60248201527f455243373231456e756d657261626c653a20676c6f62616c20696e646578206f60448201527f7574206f6620626f756e6473000000000000000000000000000000000000000060648201526084016109f7565b609982815481106111d3576111d361399a565b90600052602060002001549050919050565b610138602052600090815260409020805481906112019061389b565b80601f016020809104026020016040519081016040528092919081815260200182805461122d9061389b565b801561127a5780601f1061124f5761010080835404028352916020019161127a565b820191906000526020600020905b81548152906001019060200180831161125d57829003601f168201915b5050505050908060010154905082565b60fb546001600160a01b031633146112d25760405162461bcd60e51b81526020600482018190526024820152600080516020613af283398151915260448201526064016109f7565b80516112e69061012f90602084019061345d565b5050565b60fb546001600160a01b031633146113325760405162461bcd60e51b81526020600482018190526024820152600080516020613af283398151915260448201526064016109f7565b61013780546001600160a01b0319166001600160a01b0392909216919091179055565b6000818152606760205260408120546001600160a01b0316806108ea5760405162461bcd60e51b815260206004820152602960248201527f4552433732313a206f776e657220717565727920666f72206e6f6e657869737460448201527f656e7420746f6b656e000000000000000000000000000000000000000000000060648201526084016109f7565b60006001600160a01b03821661145e5760405162461bcd60e51b815260206004820152602a60248201527f4552433732313a2062616c616e636520717565727920666f7220746865207a6560448201527f726f20616464726573730000000000000000000000000000000000000000000060648201526084016109f7565b506001600160a01b031660009081526068602052604090205490565b60fb546001600160a01b031633146114c25760405162461bcd60e51b81526020600482018190526024820152600080516020613af283398151915260448201526064016109f7565b6114cc6000612464565b565b600054610100900460ff166114e95760005460ff16156114ed565b303b155b61155f5760405162461bcd60e51b815260206004820152602e60248201527f496e697469616c697a61626c653a20636f6e747261637420697320616c72656160448201527f647920696e697469616c697a656400000000000000000000000000000000000060648201526084016109f7565b600054610100900460ff16158015611581576000805461ffff19166101011790555b6115f56040518060400160405280600d81526020017f4d455441204150452047414e47000000000000000000000000000000000000008152506040518060400160405280600381526020017f4d414700000000000000000000000000000000000000000000000000000000008152506124b6565b6115fd61252b565b61013780546001600160a01b0319163317905560036101355566b1a2bc2ec50000610133556305f5e10061013455801561163d576000805461ff00191690555b50565b60fb546001600160a01b031633146116885760405162461bcd60e51b81526020600482018190526024820152600080516020613af283398151915260448201526064016109f7565b61013654610137546040516370a0823160e01b81523060048201526001600160a01b039283169263a9059cbb92169083906370a082319060240160206040518083038186803b1580156116da57600080fd5b505afa1580156116ee573d6000803e3d6000fd5b505050506040513d601f19601f8201168201806040525081019061171291906138d6565b6040516001600160e01b031960e085901b1681526001600160a01b0390921660048301526024820152604401602060405180830381600087803b15801561175857600080fd5b505af115801561176c573d6000803e3d6000fd5b505050506040513d601f19601f8201168201806040525081019061163d91906138ef565b6001600160a01b038116600090815261013060209081526040918290208054835181840281018401909452808452606093928301828280156117f157602002820191906000526020600020905b8154815260200190600101908083116117dd575b50505050509050919050565b6060606680546108ff9061389b565b8034600061181a82846125fa565b90506101335481101561186f5760405162461bcd60e51b815260206004820152601660248201527f4e6f7420656e6f756768206d696e742070726963652e0000000000000000000060448201526064016109f7565b336000908152610132602052604081205485919061188d908361216b565b9050610135548111156118e25760405162461bcd60e51b815260206004820152601860248201527f4f76657220746865206d6178206d696e7420636f756e742e000000000000000060448201526064016109f7565b60005b8681101561197e5760006118f961012e5490565b90506000611906826121ca565b604051602001611916919061390c565b60405160208183030381529060405290506119313383612250565b61193b828261239e565b336000908152610130602090815260408220805460018101825590835291200182905561196961012e612447565b5050808061197690613963565b9150506118e5565b50336000908152610132602052604090205461199a908761216b565b3360009081526101326020526040902055505050505050565b6112e633838361263c565b6000818152606760205260408120546001600160a01b03166119df57600080fd5b506000908152610131602052604090205490565b6119fd338361270b565b611a6f5760405162461bcd60e51b815260206004820152603160248201527f4552433732313a207472616e736665722063616c6c6572206973206e6f74206f60448201527f776e6572206e6f7220617070726f76656400000000000000000000000000000060648201526084016109f7565b611a7b84848484612802565b50505050565b60606108ea8261288b565b60fb546001600160a01b03163314611ad45760405162461bcd60e51b81526020600482018190526024820152600080516020613af283398151915260448201526064016109f7565b610137546040516370a0823160e01b81523060048201526001600160a01b038381169263a9059cbb9291169083906370a082319060240160206040518083038186803b158015611b2357600080fd5b505afa158015611b37573d6000803e3d6000fd5b505050506040513d601f19601f82011682018060405250810190611b5b91906138d6565b6040516001600160e01b031960e085901b1681526001600160a01b0390921660048301526024820152604401602060405180830381600087803b158015611ba157600080fd5b505af1158015611bb5573d6000803e3d6000fd5b505050506040513d601f19601f820116820180604052508101906112e691906138ef565b60fb546001600160a01b03163314611c215760405162461bcd60e51b81526020600482018190526024820152600080516020613af283398151915260448201526064016109f7565b6001600160a01b038216611c9d5760405162461bcd60e51b815260206004820152602d60248201527f44656c6567617461626c653a206e65772064656c65676174652069732074686560448201527f207a65726f20616464726573730000000000000000000000000000000000000060648201526084016109f7565b6112e68282612a09565b60fb546001600160a01b03163314611cef5760405162461bcd60e51b81526020600482018190526024820152600080516020613af283398151915260448201526064016109f7565b61013555565b60fb546001600160a01b03163314611d3d5760405162461bcd60e51b81526020600482018190526024820152600080516020613af283398151915260448201526064016109f7565b6001600160a01b038116611db95760405162461bcd60e51b815260206004820152602660248201527f4f776e61626c653a206e6577206f776e657220697320746865207a65726f206160448201527f646472657373000000000000000000000000000000000000000000000000000060648201526084016109f7565b61163d81612464565b60fb546001600160a01b03163314611e0a5760405162461bcd60e51b81526020600482018190526024820152600080516020613af283398151915260448201526064016109f7565b61013355565b60006001600160e01b031982167f780e9d630000000000000000000000000000000000000000000000000000000014806108ea57506108ea82612a51565b600081815260696020526040902080546001600160a01b0319166001600160a01b0384169081179091558190611e8382611355565b6001600160a01b03167f8c5be1e5ebec7d5bd14f71427d1e84f3dd0314c0f7b2291e5b200ac8c7c3b92560405160405180910390a45050565b611ec6338261270b565b611f385760405162461bcd60e51b815260206004820152603160248201527f4552433732313a207472616e736665722063616c6c6572206973206e6f74206f60448201527f776e6572206e6f7220617070726f76656400000000000000000000000000000060648201526084016109f7565b610b49838383612adc565b6000805b6001600160a01b03841660009081526101306020526040902054811015611fc1576001600160a01b038416600090815261013060205260409020805484919083908110611f9657611f9661399a565b90600052602060002001541415611faf57809150611fc1565b80611fb981613963565b915050611f47565b50805b6001600160a01b03841660009081526101306020526040902054611fea906001906139b0565b811015612085576001600160a01b0384166000908152610130602052604090206120158260016139c7565b815481106120255761202561399a565b90600052602060002001546101306000866001600160a01b03166001600160a01b0316815260200190815260200160002082815481106120675761206761399a565b6000918252602090912001558061207d81613963565b915050611fc4565b506001600160a01b0383166000908152610130602052604090208054806120ae576120ae6139df565b60019003818190600052602060002001600090559055505050565b6000826120d8575060006108ea565b60006120e483856139f5565b9050826120f18583613a2a565b146121645760405162461bcd60e51b815260206004820152602160248201527f536166654d6174683a206d756c7469706c69636174696f6e206f766572666c6f60448201527f770000000000000000000000000000000000000000000000000000000000000060648201526084016109f7565b9392505050565b60008061217883856139c7565b9050838110156121645760405162461bcd60e51b815260206004820152601b60248201527f536166654d6174683a206164646974696f6e206f766572666c6f77000000000060448201526064016109f7565b604080516001808252818301909252606091600091906020820181803683370190505090506121fa600a84613a3e565b6122059060306139c7565b60f81b8160008151811061221b5761221b61399a565b60200101907effffffffffffffffffffffffffffffffffffffffffffffffffffffffffffff1916908160001a90535092915050565b6001600160a01b0382166122a65760405162461bcd60e51b815260206004820181905260248201527f4552433732313a206d696e7420746f20746865207a65726f206164647265737360448201526064016109f7565b6000818152606760205260409020546001600160a01b03161561230b5760405162461bcd60e51b815260206004820152601c60248201527f4552433732313a20746f6b656e20616c7265616479206d696e7465640000000060448201526064016109f7565b61231760008383612cb4565b6001600160a01b03821660009081526068602052604081208054600192906123409084906139c7565b909155505060008181526067602052604080822080546001600160a01b0319166001600160a01b03861690811790915590518392907fddf252ad1be2c89b69c2b068fc378daa952ba7f163c4a11628f55a4df523b3ef908290a45050565b6000828152606760205260409020546001600160a01b03166124285760405162461bcd60e51b815260206004820152602e60248201527f45524337323155524953746f726167653a2055524920736574206f66206e6f6e60448201527f6578697374656e7420746f6b656e00000000000000000000000000000000000060648201526084016109f7565b600082815260c9602090815260409091208251610b499284019061345d565b600181600001600082825461245c91906139c7565b909155505050565b60fb80546001600160a01b038381166001600160a01b0319831681179093556040519116919082907f8be0079c531659141344cd1fd0a4f28419497f9722a3daafe3b4186f6b6457e090600090a35050565b600054610100900460ff166125215760405162461bcd60e51b815260206004820152602b60248201527f496e697469616c697a61626c653a20636f6e7472616374206973206e6f74206960448201526a6e697469616c697a696e6760a81b60648201526084016109f7565b6112e68282612cbf565b600054610100900460ff166125465760005460ff161561254a565b303b155b6125bc5760405162461bcd60e51b815260206004820152602e60248201527f496e697469616c697a61626c653a20636f6e747261637420697320616c72656160448201527f647920696e697469616c697a656400000000000000000000000000000000000060648201526084016109f7565b600054610100900460ff161580156125de576000805461ffff19166101011790555b6125e6612d51565b801561163d576000805461ff001916905550565b600061216483836040518060400160405280601a81526020017f536166654d6174683a206469766973696f6e206279207a65726f000000000000815250612dc4565b816001600160a01b0316836001600160a01b0316141561269e5760405162461bcd60e51b815260206004820152601960248201527f4552433732313a20617070726f766520746f2063616c6c65720000000000000060448201526064016109f7565b6001600160a01b038381166000818152606a6020908152604080832094871680845294825291829020805460ff191686151590811790915591519182527f17307eab39ab6107e8899845ad3d59bd9653f200f220920489ca2b5937696c31910160405180910390a3505050565b6000818152606760205260408120546001600160a01b03166127845760405162461bcd60e51b815260206004820152602c60248201527f4552433732313a206f70657261746f7220717565727920666f72206e6f6e657860448201526b34b9ba32b73a103a37b5b2b760a11b60648201526084016109f7565b600061278f83611355565b9050806001600160a01b0316846001600160a01b031614806127ca5750836001600160a01b03166127bf84610982565b6001600160a01b0316145b806127fa57506001600160a01b038082166000908152606a602090815260408083209388168352929052205460ff165b949350505050565b61280d848484612adc565b61281984848484612dfb565b611a7b5760405162461bcd60e51b815260206004820152603260248201527f4552433732313a207472616e7366657220746f206e6f6e20455243373231526560448201527f63656976657220696d706c656d656e746572000000000000000000000000000060648201526084016109f7565b6000818152606760205260409020546060906001600160a01b03166129185760405162461bcd60e51b815260206004820152603160248201527f45524337323155524953746f726167653a2055524920717565727920666f722060448201527f6e6f6e6578697374656e7420746f6b656e00000000000000000000000000000060648201526084016109f7565b600082815260c96020526040812080546129319061389b565b80601f016020809104026020016040519081016040528092919081815260200182805461295d9061389b565b80156129aa5780601f1061297f576101008083540402835291602001916129aa565b820191906000526020600020905b81548152906001019060200180831161298d57829003601f168201915b5050505050905060006129bb612f5e565b90508051600014156129ce575092915050565b815115612a005780826040516020016129e8929190613a52565b60405160208183030381529060405292505050919050565b6127fa84612f6e565b6001600160a01b038216600081815261012d6020526040808220849055518392917f6c5f52bb89ff64b97a0875a6ee13193b008c8b1460aea11a245fa07b64b721e691a35050565b60006001600160e01b031982167f80ac58cd000000000000000000000000000000000000000000000000000000001480612ab457506001600160e01b031982167f5b5e139f00000000000000000000000000000000000000000000000000000000145b806108ea57506001600160e01b0319821660009081526033602052604090205460ff166108ea565b826001600160a01b0316612aef82611355565b6001600160a01b031614612b6b5760405162461bcd60e51b815260206004820152602560248201527f4552433732313a207472616e736665722066726f6d20696e636f72726563742060448201527f6f776e657200000000000000000000000000000000000000000000000000000060648201526084016109f7565b6001600160a01b038216612be65760405162461bcd60e51b8152602060048201526024808201527f4552433732313a207472616e7366657220746f20746865207a65726f2061646460448201527f726573730000000000000000000000000000000000000000000000000000000060648201526084016109f7565b612bf1838383612cb4565b612bfc600082611e4e565b6001600160a01b0383166000908152606860205260408120805460019290612c259084906139b0565b90915550506001600160a01b0382166000908152606860205260408120805460019290612c539084906139c7565b909155505060008181526067602052604080822080546001600160a01b0319166001600160a01b0386811691821790925591518493918716917fddf252ad1be2c89b69c2b068fc378daa952ba7f163c4a11628f55a4df523b3ef91a4505050565b610b49838383613056565b600054610100900460ff16612d2a5760405162461bcd60e51b815260206004820152602b60248201527f496e697469616c697a61626c653a20636f6e7472616374206973206e6f74206960448201526a6e697469616c697a696e6760a81b60648201526084016109f7565b8151612d3d90606590602085019061345d565b508051610b4990606690602084019061345d565b600054610100900460ff16612dbc5760405162461bcd60e51b815260206004820152602b60248201527f496e697469616c697a61626c653a20636f6e7472616374206973206e6f74206960448201526a6e697469616c697a696e6760a81b60648201526084016109f7565b6114cc61310e565b60008183612de55760405162461bcd60e51b81526004016109f79190613581565b506000612df28486613a2a565b95945050505050565b60006001600160a01b0384163b15612f5357604051630a85bd0160e11b81526001600160a01b0385169063150b7a0290612e3f903390899088908890600401613a81565b602060405180830381600087803b158015612e5957600080fd5b505af1925050508015612e89575060408051601f3d908101601f19168201909252612e8691810190613abd565b60015b612f39573d808015612eb7576040519150601f19603f3d011682016040523d82523d6000602084013e612ebc565b606091505b508051612f315760405162461bcd60e51b815260206004820152603260248201527f4552433732313a207472616e7366657220746f206e6f6e20455243373231526560448201527f63656976657220696d706c656d656e746572000000000000000000000000000060648201526084016109f7565b805181602001fd5b6001600160e01b031916630a85bd0160e11b1490506127fa565b506001949350505050565b606061012f80546108ff9061389b565b6000818152606760205260409020546060906001600160a01b0316612ffb5760405162461bcd60e51b815260206004820152602f60248201527f4552433732314d657461646174613a2055524920717565727920666f72206e6f60448201527f6e6578697374656e7420746f6b656e000000000000000000000000000000000060648201526084016109f7565b6000613005612f5e565b905060008151116130255760405180602001604052806000815250612164565b8061302f84613182565b604051602001613040929190613a52565b6040516020818303038152906040529392505050565b6001600160a01b0383166130b1576130ac81609980546000838152609a60205260408120829055600182018355919091527f72a152ddfb8e864297c917af52ea6c1c68aead0fee1a62673fcc7e0c94979d000155565b6130d4565b816001600160a01b0316836001600160a01b0316146130d4576130d483826132cd565b6001600160a01b0382166130eb57610b498161336a565b826001600160a01b0316826001600160a01b031614610b4957610b498282613419565b600054610100900460ff166131795760405162461bcd60e51b815260206004820152602b60248201527f496e697469616c697a61626c653a20636f6e7472616374206973206e6f74206960448201526a6e697469616c697a696e6760a81b60648201526084016109f7565b6114cc33612464565b6060816131c257505060408051808201909152600181527f3000000000000000000000000000000000000000000000000000000000000000602082015290565b8160005b81156131ec57806131d681613963565b91506131e59050600a83613a2a565b91506131c6565b60008167ffffffffffffffff8111156132075761320761367d565b6040519080825280601f01601f191660200182016040528015613231576020820181803683370190505b50905060006132416001846139b0565b90508593505b83156132c457613258600a85613a3e565b6132639060306139c7565b60f81b828261327181613ada565b9350815181106132835761328361399a565b60200101907effffffffffffffffffffffffffffffffffffffffffffffffffffffffffffff1916908160001a9053506132bd600a85613a2a565b9350613247565b50949350505050565b600060016132da846113e0565b6132e491906139b0565b600083815260986020526040902054909150808214613337576001600160a01b03841660009081526097602090815260408083208584528252808320548484528184208190558352609890915290208190555b5060009182526098602090815260408084208490556001600160a01b039094168352609781528383209183525290812055565b60995460009061337c906001906139b0565b6000838152609a6020526040812054609980549394509092849081106133a4576133a461399a565b9060005260206000200154905080609983815481106133c5576133c561399a565b6000918252602080832090910192909255828152609a909152604080822084905585825281205560998054806133fd576133fd6139df565b6001900381819060005260206000200160009055905550505050565b6000613424836113e0565b6001600160a01b039093166000908152609760209081526040808320868452825280832085905593825260989052919091209190915550565b8280546134699061389b565b90600052602060002090601f01602090048101928261348b57600085556134d1565b82601f106134a457805160ff19168380011785556134d1565b828001600101855582156134d1579182015b828111156134d15782518255916020019190600101906134b6565b506134dd9291506134e1565b5090565b5b808211156134dd57600081556001016134e2565b6001600160e01b03198116811461163d57600080fd5b60006020828403121561351e57600080fd5b8135612164816134f6565b60005b8381101561354457818101518382015260200161352c565b83811115611a7b5750506000910152565b6000815180845261356d816020860160208601613529565b601f01601f19169290920160200192915050565b6020815260006121646020830184613555565b6000602082840312156135a657600080fd5b5035919050565b80356001600160a01b03811681146135c457600080fd5b919050565b600080604083850312156135dc57600080fd5b6135e5836135ad565b946020939093013593505050565b60006020828403121561360557600080fd5b612164826135ad565b60008060006060848603121561362357600080fd5b61362c846135ad565b925061363a602085016135ad565b9150604084013590509250925092565b6000806040838503121561365d57600080fd5b613666836135ad565b9150613674602084016135ad565b90509250929050565b634e487b7160e01b600052604160045260246000fd5b600067ffffffffffffffff808411156136ae576136ae61367d565b604051601f8501601f19908116603f011681019082821181831017156136d6576136d661367d565b816040528093508581528686860111156136ef57600080fd5b858560208301376000602087830101525050509392505050565b60006020828403121561371b57600080fd5b813567ffffffffffffffff81111561373257600080fd5b8201601f8101841361374357600080fd5b6127fa84823560208401613693565b6040815260006137656040830185613555565b90508260208301529392505050565b6020808252825182820181905260009190848201906040850190845b818110156137ac57835183529284019291840191600101613790565b50909695505050505050565b600080604083850312156137cb57600080fd5b50508035926020909101359150565b801515811461163d57600080fd5b600080604083850312156137fb57600080fd5b613804836135ad565b91506020830135613814816137da565b809150509250929050565b6000806000806080858703121561383557600080fd5b61383e856135ad565b935061384c602086016135ad565b925060408501359150606085013567ffffffffffffffff81111561386f57600080fd5b8501601f8101871361388057600080fd5b61388f87823560208401613693565b91505092959194509250565b600181811c908216806138af57607f821691505b602082108114156138d057634e487b7160e01b600052602260045260246000fd5b50919050565b6000602082840312156138e857600080fd5b5051919050565b60006020828403121561390157600080fd5b8151612164816137da565b6000825161391e818460208701613529565b7f2e6a736f6e000000000000000000000000000000000000000000000000000000920191825250600501919050565b634e487b7160e01b600052601160045260246000fd5b60006000198214156139775761397761394d565b5060010190565b60008251613990818460208701613529565b9190910192915050565b634e487b7160e01b600052603260045260246000fd5b6000828210156139c2576139c261394d565b500390565b600082198211156139da576139da61394d565b500190565b634e487b7160e01b600052603160045260246000fd5b6000816000190483118215151615613a0f57613a0f61394d565b500290565b634e487b7160e01b600052601260045260246000fd5b600082613a3957613a39613a14565b500490565b600082613a4d57613a4d613a14565b500690565b60008351613a64818460208801613529565b835190830190613a78818360208801613529565b01949350505050565b60006001600160a01b03808716835280861660208401525083604083015260806060830152613ab36080830184613555565b9695505050505050565b600060208284031215613acf57600080fd5b8151612164816134f6565b600081613ae957613ae961394d565b50600019019056fe4f776e61626c653a2063616c6c6572206973206e6f7420746865206f776e6572a26469706673582212205912556d8bbf025f081e696c1d426b33171f19f636b64c933ab42847947b656f64736f6c63430008080033",
  "linkReferences": {},
  "deployedLinkReferences": {}
}